{
  "contractName": "Adoption",
  "abi": [
    {
      "inputs": [],
      "payable": false,
      "stateMutability": "nonpayable",
      "type": "constructor"
    },
    {
      "constant": false,
      "inputs": [
        {
          "name": "rank",
          "type": "string"
        }
      ],
      "name": "beamMeUp",
      "outputs": [
        {
          "name": "",
          "type": "string"
        },
        {
          "name": "",
          "type": "uint256"
        }
      ],
      "payable": true,
      "stateMutability": "payable",
      "type": "function"
    },
    {
      "constant": true,
      "inputs": [],
      "name": "roleCall",
      "outputs": [
        {
          "components": [
            {
              "name": "rank",
              "type": "string"
            },
            {
              "name": "dna",
              "type": "uint256"
            }
          ],
          "name": "",
          "type": "tuple[]"
        }
      ],
      "payable": false,
      "stateMutability": "view",
      "type": "function"
    }
  ],
  "bytecode": "0x608060405234801561001057600080fd5b507f0958baae01ad2a24456dbeee99070fcafbe288625e8d529c4aa190f95c2bcd31600160405180807f6361707461696e0000000000000000000000000000000000000000000000000081525060070190509081526020016040518091039020819055506107f2806100836000396000f30060806040526004361061004c576000357c0100000000000000000000000000000000000000000000000000000000900463ffffffff1680633ece26d014610051578063999ace9414610082575b600080fd5b61006b6004803603610066919081019061050e565b6100ad565b604051610079929190610697565b60405180910390f35b34801561008e57600080fd5b5061009761020a565b6040516100a49190610675565b60405180910390f35b60606000806000806100bd6103f9565b60006001886040518082805190602001908083835b6020831015156100f757805182526020820191506020810190506020830392506100d2565b6001836020036101000a03801982511681845116808217855250505050505090500191505090815260200160405180910390205414151561013457fe5b34935033925061014387610351565b915060408051908101604052808881526020018381525090506000808473ffffffffffffffffffffffffffffffffffffffff1673ffffffffffffffffffffffffffffffffffffffff168152602001908152602001600020819080600181540180825580915050906001820390600052602060002090600202016000909192909190915060008201518160000190805190602001906101e2929190610413565b5060208201518160010155505050806000015181602001518191509550955050505050915091565b60606000803373ffffffffffffffffffffffffffffffffffffffff1673ffffffffffffffffffffffffffffffffffffffff168152602001908152602001600020805480602002602001604051908101604052809291908181526020016000905b828210156103485783829060005260206000209060020201604080519081016040529081600082018054600181600116156101000203166002900480601f0160208091040260200160405190810160405280929190818152602001828054600181600116156101000203166002900480156103265780601f106102fb57610100808354040283529160200191610326565b820191906000526020600020905b81548152906001019060200180831161030957829003601f168201915b505050505081526020016001820154815250508152602001906001019061026a565b50505050905090565b600080600080434060019004925060648381151561036b57fe5b0691506103e86001866040518082805190602001908083835b6020831015156103a95780518252602082019150602081019050602083039250610384565b6001836020036101000a0380198251168184511680821785525050505050509050019150509081526020016040518091039020548115156103e657fe5b0690508160648202019350505050919050565b604080519081016040528060608152602001600081525090565b828054600181600116156101000203166002900490600052602060002090601f016020900481019282601f1061045457805160ff1916838001178555610482565b82800160010185558215610482579182015b82811115610481578251825591602001919060010190610466565b5b50905061048f9190610493565b5090565b6104b591905b808211156104b1576000816000905550600101610499565b5090565b90565b600082601f83011215156104cb57600080fd5b81356104de6104d9826106f4565b6106c7565b915080825260208301602083018583830111156104fa57600080fd5b610505838284610765565b50505092915050565b60006020828403121561052057600080fd5b600082013567ffffffffffffffff81111561053a57600080fd5b610546848285016104b8565b91505092915050565b600061055a8261072d565b8084526020840193508360208202850161057385610720565b60005b848110156105ac57838303885261058e838351610629565b92506105998261074e565b9150602088019750600181019050610576565b508196508694505050505092915050565b60006105c882610743565b8084526105dc816020860160208601610774565b6105e5816107a7565b602085010191505092915050565b60006105fe82610738565b808452610612816020860160208601610774565b61061b816107a7565b602085010191505092915050565b6000604083016000830151848203600086015261064682826105f3565b915050602083015161065b6020860182610666565b508091505092915050565b61066f8161075b565b82525050565b6000602082019050818103600083015261068f818461054f565b905092915050565b600060408201905081810360008301526106b181856105bd565b90506106c06020830184610666565b9392505050565b6000604051905081810181811067ffffffffffffffff821117156106ea57600080fd5b8060405250919050565b600067ffffffffffffffff82111561070b57600080fd5b601f19601f8301169050602081019050919050565b6000602082019050919050565b600081519050919050565b600081519050919050565b600081519050919050565b6000602082019050919050565b6000819050919050565b82818337600083830152505050565b60005b83811015610792578082015181840152602081019050610777565b838111156107a1576000848401525b50505050565b6000601f19601f83011690509190505600a265627a7a72305820b7c3740998c9ec49e75268034ce8831f60c67700a497cc306475dee90fcded016c6578706572696d656e74616cf50037",
  "source": "pragma experimental ABIEncoderV2;\n\ncontract Adoption {\n\n    constructor(){\n        astronautRankDna['captain'] = 0x0958baae01ad2a24456dbeee99070fcafbe288625e8d529c4aa190f95c2bcd31;\n    }\n\n    struct Astronaut {\n        string rank;\n        uint dna;\n    }\n\n    mapping (address => Astronaut[]) private spaceships;\n\n    mapping(string => uint) private astronautRankDna;\n\n    function beamMeUp(string rank) public payable returns (string, uint) {\n        assert(astronautRankDna[rank] == 0);\n\n        uint spaceBucks = msg.value;\n        address spaceshipAddress = msg.sender;\n        uint dna = generateDna(rank);\n\n        Astronaut memory astronaut = Astronaut(rank, dna);\n        spaceships[spaceshipAddress].push(astronaut);\n\n        return (astronaut.rank, astronaut.dna);\n    }\n\n    function generateDna(string rank) private view returns (uint) {\n        uint currentBlockHash = uint(blockhash(block.number));\n        uint uniqueAstronautDna = currentBlockHash % (10 ** 2);\n        uint rankDna = astronautRankDna[rank] % (10 ** 3);\n\n        return (rankDna * (10 ** 2)) + uniqueAstronautDna;\n    }\n\n    function roleCall() public view returns (Astronaut[]){\n        return spaceships[msg.sender];\n    }\n\n}\n",
  "sourcePath": "/mnt/c/Users/merlich/Desktop/DAppCollectibles/truffleProj/contracts/Adoption.sol",
  "compiler": {
    "name": "solc",
    "version": "0.4.23+commit.124ca40d.Emscripten.clang"
  },
  "schemaVersion": "2.0.0",
  "updatedAt": "2018-05-11T18:50:13.603Z"
}